{
  "contractName": "CrowdFunding",
  "abi": [
    {
      "constant": false,
      "inputs": [
        {
          "name": "beneficiary",
          "type": "address"
        },
        {
          "name": "goal",
          "type": "uint256"
        }
      ],
      "name": "newCampaign",
      "outputs": [
        {
          "name": "campaignID",
          "type": "uint256"
        }
      ],
      "payable": false,
      "stateMutability": "nonpayable",
      "type": "function"
    },
    {
      "constant": false,
      "inputs": [
        {
          "name": "campaignID",
          "type": "uint256"
        }
      ],
      "name": "contribute",
      "outputs": [],
      "payable": true,
      "stateMutability": "payable",
      "type": "function"
    },
    {
      "constant": true,
      "inputs": [
        {
          "name": "campaignID",
          "type": "uint256"
        }
      ],
      "name": "getCampaignAmount",
      "outputs": [
        {
          "name": "",
          "type": "uint256"
        },
        {
          "name": "",
          "type": "uint256"
        }
      ],
      "payable": false,
      "stateMutability": "view",
      "type": "function"
    },
    {
      "constant": true,
      "inputs": [
        {
          "name": "campaignID",
          "type": "uint256"
        }
      ],
      "name": "checkGoalReached",
      "outputs": [
        {
          "name": "reached",
          "type": "bool"
        }
      ],
      "payable": false,
      "stateMutability": "view",
      "type": "function"
    }
  ],
  "bytecode": "0x608060405234801561001057600080fd5b5061042b806100206000396000f300608060405260043610610062576000357c0100000000000000000000000000000000000000000000000000000000900463ffffffff168063296c10f4146100675780635b2329d4146100af578063c1cbbca7146100f4578063f7572cf314610114575b600080fd5b34801561007357600080fd5b5061009260048036038101908080359060200190929190505050610175565b604051808381526020018281526020019250505060405180910390f35b3480156100bb57600080fd5b506100da600480360381019080803590602001909291905050506101a3565b604051808215151515815260200191505060405180910390f35b610112600480360381019080803590602001909291905050506101df565b005b34801561012057600080fd5b5061015f600480360381019080803573ffffffffffffffffffffffffffffffffffffffff16906020019092919080359060200190929190505050610330565b6040518082815260200191505060405180910390f35b6000806000600160008581526020019081526020016000209050806003015481600101549250925050915091565b6000806001600084815260200190815260200160002090508060010154816003015410156101d457600091506101d9565b600191505b50919050565b600060016000838152602001908152602001600020905060408051908101604052803373ffffffffffffffffffffffffffffffffffffffff1681526020013481525081600401600083600201600081548092919060010191905055815260200190815260200160002060008201518160000160006101000a81548173ffffffffffffffffffffffffffffffffffffffff021916908373ffffffffffffffffffffffffffffffffffffffff16021790555060208201518160010155905050670de0b6b3a7640000348115156102af57fe5b0481600301600082825401925050819055508060000160009054906101000a900473ffffffffffffffffffffffffffffffffffffffff1673ffffffffffffffffffffffffffffffffffffffff166108fc349081150290604051600060405180830381858888f1935050505015801561032b573d6000803e3d6000fd5b505050565b60008060008154809291906001019190505590506080604051908101604052808473ffffffffffffffffffffffffffffffffffffffff1681526020018381526020016000815260200160008152506001600083815260200190815260200160002060008201518160000160006101000a81548173ffffffffffffffffffffffffffffffffffffffff021916908373ffffffffffffffffffffffffffffffffffffffff160217905550602082015181600101556040820151816002015560608201518160030155905050929150505600a165627a7a72305820ea6d4edf1fb822e967f2c5dc3054b0d7bb509607e66cf8434b21e996e8847acd0029",
  "source": "pragma solidity ^0.4.19;\n\ncontract CrowdFunding {\n\n\n  /* (0) 0x627306090abab3a6e1400e9345bc60c78a8bef57\n(1) 0xf17f52151ebef6c7334fad080c5704d77216b732\n(2) 0xc5fdf4076b8f3a5357c5e395ab970b5b54098fef\n(3) 0x821aea9a577a9b44299b9c15c88cf3087f3b5544\n(4) 0x0d1d4e623d10f9fba5db95830f7d3839406c6af2\n(5) 0x2932b7a2355d6fecc4b5c0b6bd44cc31df247a2e\n(6) 0x2191ef87e392377ec08e7c08eb105ef5448eced5\n(7) 0x0f4f2ac550a1b4e2280d04c21cea7ebd822934b5\n(8) 0x6330a553fc93768f612722bb8c2ec78ac90b3bbc\n(9) 0x5aeda56215b167893e80b4fe645ba6d5bab767de */\n\n\n    // 定义一个`Funder`结构体类型，用于表示出资人，其中有出资人的钱包地址和他一共出资的总额度。\n    struct Funder {\n        address addr; // 出资人地址\n        uint amount;  // 出资总额\n    }\n\n\n   // 定义一个表示存储运动员相关信息的结构体\n    struct Campaign {\n        address beneficiary; // 受益人钱包地址\n        uint fundingGoal; // 需要赞助的总额度\n        uint numFunders; // 有多少人赞助\n        uint amount; // 已赞助的总金额\n        mapping (uint => Funder) funders; // 按照索引存储出资人信息\n    }\n\n    uint numCampaigns; // 统计运动员(被赞助人)数量\n    mapping (uint => Campaign) campaigns; // 以键值对的形式存储被赞助人的信息\n\n\n    // 新增一个`Campaign`对象，需要传入受益人的地址和需要筹资的总额\n    function newCampaign(address beneficiary, uint goal) public returns (uint campaignID) {\n        campaignID = numCampaigns++; // 计数+1\n        // 创建一个`Campaign`对象，并存储到`campaigns`里面\n        campaigns[campaignID] = Campaign(beneficiary, goal, 0, 0);\n    }\n\n    // 通过campaignID给某个Campaign对象赞助\n    function contribute(uint campaignID) public payable {\n        Campaign storage c = campaigns[campaignID];// 通过campaignID获取campaignID对应的Campaign对象\n        c.funders[c.numFunders++] = Funder({addr: msg.sender, amount: msg.value}); // 存储投资者信息\n        c.amount += msg.value / 1 ether; // 计算收到的总款\n        c.beneficiary.transfer(msg.value);//\n    }\n\n    function getCampaignAmount(uint campaignID) public view returns (uint,uint) {\n        Campaign storage c = campaigns[campaignID];\n        return (c.amount,c.fundingGoal);\n\n    }\n\n\n    // 检查某个campaignID编号的受益人集资是否达标，不达标返回false，否则返回true\n    function checkGoalReached(uint campaignID) public view returns (bool reached) {\n        Campaign storage c = campaigns[campaignID];\n        if (c.amount < c.fundingGoal)\n            return false;\n        return true;\n    }\n}\n",
  "sourcePath": "/Users/liyuechun/Desktop/0717/MetaCoin/contracts/CrowdFunding.sol",
  "compiler": {
    "name": "solc",
    "version": "0.4.24+commit.e67f0147.Emscripten.clang"
  },
  "schemaVersion": "2.0.1",
  "updatedAt": "2018-07-17T02:18:45.128Z"
}